{
  "_format": "hh-sol-artifact-1",
  "contractName": "Ballot",
  "sourceName": "contracts/Ballot.sol",
  "abi": [
    {
      "inputs": [
        {
          "internalType": "uint256",
          "name": "_startTime",
          "type": "uint256"
        },
        {
          "internalType": "uint256",
          "name": "_endTime",
          "type": "uint256"
        },
        {
          "internalType": "string[]",
          "name": "candidateNames",
          "type": "string[]"
        }
      ],
      "stateMutability": "nonpayable",
      "type": "constructor"
    },
    {
      "anonymous": false,
      "inputs": [
        {
          "indexed": true,
          "internalType": "address",
          "name": "voter",
          "type": "address"
        },
        {
          "indexed": false,
          "internalType": "uint256",
          "name": "candidateIndex",
          "type": "uint256"
        }
      ],
      "name": "VoteCast",
      "type": "event"
    },
    {
      "inputs": [
        {
          "internalType": "uint256",
          "name": "",
          "type": "uint256"
        }
      ],
      "name": "candidates",
      "outputs": [
        {
          "internalType": "string",
          "name": "name",
          "type": "string"
        },
        {
          "internalType": "uint256",
          "name": "voteCount",
          "type": "uint256"
        }
      ],
      "stateMutability": "view",
      "type": "function"
    },
    {
      "inputs": [
        {
          "internalType": "uint256",
          "name": "candidateIndex",
          "type": "uint256"
        }
      ],
      "name": "castVote",
      "outputs": [],
      "stateMutability": "nonpayable",
      "type": "function"
    },
    {
      "inputs": [],
      "name": "endTime",
      "outputs": [
        {
          "internalType": "uint256",
          "name": "",
          "type": "uint256"
        }
      ],
      "stateMutability": "view",
      "type": "function"
    },
    {
      "inputs": [],
      "name": "getCandidates",
      "outputs": [
        {
          "components": [
            {
              "internalType": "string",
              "name": "name",
              "type": "string"
            },
            {
              "internalType": "uint256",
              "name": "voteCount",
              "type": "uint256"
            }
          ],
          "internalType": "struct Ballot.Candidate[]",
          "name": "",
          "type": "tuple[]"
        }
      ],
      "stateMutability": "view",
      "type": "function"
    },
    {
      "inputs": [],
      "name": "getWinner",
      "outputs": [
        {
          "components": [
            {
              "internalType": "string",
              "name": "name",
              "type": "string"
            },
            {
              "internalType": "uint256",
              "name": "voteCount",
              "type": "uint256"
            }
          ],
          "internalType": "struct Ballot.Candidate",
          "name": "",
          "type": "tuple"
        }
      ],
      "stateMutability": "view",
      "type": "function"
    },
    {
      "inputs": [
        {
          "internalType": "address",
          "name": "",
          "type": "address"
        }
      ],
      "name": "hasVoted",
      "outputs": [
        {
          "internalType": "bool",
          "name": "",
          "type": "bool"
        }
      ],
      "stateMutability": "view",
      "type": "function"
    },
    {
      "inputs": [],
      "name": "startTime",
      "outputs": [
        {
          "internalType": "uint256",
          "name": "",
          "type": "uint256"
        }
      ],
      "stateMutability": "view",
      "type": "function"
    }
  ],
  "bytecode": "0x60806040523480156200001157600080fd5b506040516200147f3803806200147f833981810160405281019062000037919062000374565b8183106200007c576040517f08c379a000000000000000000000000000000000000000000000000000000000815260040162000073906200048d565b60405180910390fd5b428311620000c1576040517f08c379a0000000000000000000000000000000000000000000000000000000008152600401620000b890620004af565b60405180910390fd5b826002819055508160038190555060005b81518110156200019f576000604051806040016040528084848151811062000123577f4e487b7100000000000000000000000000000000000000000000000000000000600052603260045260246000fd5b602002602001015181526020016000815250908060018154018082558091505060019003906000526020600020906002020160009091909190915060008201518160000190805190602001906200017c929190620001a9565b5060208201518160010155505080806200019690620005ee565b915050620000d2565b50505050620006e3565b828054620001b790620005b8565b90600052602060002090601f016020900481019282620001db576000855562000227565b82601f10620001f657805160ff191683800117855562000227565b8280016001018555821562000227579182015b828111156200022657825182559160200191906001019062000209565b5b5090506200023691906200023a565b5090565b5b80821115620002555760008160009055506001016200023b565b5090565b6000620002706200026a8462000505565b620004d1565b9050808382526020820190508260005b85811015620002b4578151850162000299888262000330565b84526020840193506020830192505060018101905062000280565b5050509392505050565b6000620002d5620002cf8462000534565b620004d1565b905082815260208101848484011115620002ee57600080fd5b620002fb84828562000582565b509392505050565b600082601f8301126200031557600080fd5b81516200032784826020860162000259565b91505092915050565b600082601f8301126200034257600080fd5b815162000354848260208601620002be565b91505092915050565b6000815190506200036e81620006c9565b92915050565b6000806000606084860312156200038a57600080fd5b60006200039a868287016200035d565b9350506020620003ad868287016200035d565b925050604084015167ffffffffffffffff811115620003cb57600080fd5b620003d98682870162000303565b9150509250925092565b6000620003f260158362000567565b91507f496e76616c696420766f74696e6720706572696f6400000000000000000000006000830152602082019050919050565b60006200043460278362000567565b91507f566f74696e672073746172742074696d65206d75737420626520696e2074686560008301527f20667574757265000000000000000000000000000000000000000000000000006020830152604082019050919050565b60006020820190508181036000830152620004a881620003e3565b9050919050565b60006020820190508181036000830152620004ca8162000425565b9050919050565b6000604051905081810181811067ffffffffffffffff82111715620004fb57620004fa6200069a565b5b8060405250919050565b600067ffffffffffffffff8211156200052357620005226200069a565b5b602082029050602081019050919050565b600067ffffffffffffffff8211156200055257620005516200069a565b5b601f19601f8301169050602081019050919050565b600082825260208201905092915050565b6000819050919050565b60005b83811015620005a257808201518184015260208101905062000585565b83811115620005b2576000848401525b50505050565b60006002820490506001821680620005d157607f821691505b60208210811415620005e857620005e76200066b565b5b50919050565b6000620005fb8262000578565b91507fffffffffffffffffffffffffffffffffffffffffffffffffffffffffffffffff8214156200063157620006306200063c565b5b600182019050919050565b7f4e487b7100000000000000000000000000000000000000000000000000000000600052601160045260246000fd5b7f4e487b7100000000000000000000000000000000000000000000000000000000600052602260045260246000fd5b7f4e487b7100000000000000000000000000000000000000000000000000000000600052604160045260246000fd5b620006d48162000578565b8114620006e057600080fd5b50565b610d8c80620006f36000396000f3fe608060405234801561001057600080fd5b506004361061007d5760003560e01c80633477ee2e1161005b5780633477ee2e146100ee5780633eb76b9c1461011f57806378e979251461013b5780638e7ea5b2146101595761007d565b806306a49fce1461008257806309eef43e146100a05780633197cbb6146100d0575b600080fd5b61008a610177565b6040516100979190610a53565b60405180910390f35b6100ba60048036038101906100b5919061079f565b610272565b6040516100c79190610a75565b60405180910390f35b6100d8610292565b6040516100e59190610b42565b60405180910390f35b610108600480360381019061010391906107c8565b610298565b604051610116929190610a90565b60405180910390f35b610139600480360381019061013491906107c8565b610354565b005b610143610584565b6040516101509190610b42565b60405180910390f35b61016161058a565b60405161016e9190610b20565b60405180910390f35b60606000805480602002602001604051908101604052809291908181526020016000905b8282101561026957838290600052602060002090600202016040518060400160405290816000820180546101ce90610c3e565b80601f01602080910402602001604051908101604052809291908181526020018280546101fa90610c3e565b80156102475780601f1061021c57610100808354040283529160200191610247565b820191906000526020600020905b81548152906001019060200180831161022a57829003601f168201915b505050505081526020016001820154815250508152602001906001019061019b565b50505050905090565b60016020528060005260406000206000915054906101000a900460ff1681565b60035481565b600081815481106102a857600080fd5b90600052602060002090600202016000915090508060000180546102cb90610c3e565b80601f01602080910402602001604051908101604052809291908181526020018280546102f790610c3e565b80156103445780601f1061031957610100808354040283529160200191610344565b820191906000526020600020905b81548152906001019060200180831161032757829003601f168201915b5050505050908060010154905082565b600254421015801561036857506003544211155b6103a7576040517f08c379a000000000000000000000000000000000000000000000000000000000815260040161039e90610ae0565b60405180910390fd5b600160003373ffffffffffffffffffffffffffffffffffffffff1673ffffffffffffffffffffffffffffffffffffffff16815260200190815260200160002060009054906101000a900460ff1615610434576040517f08c379a000000000000000000000000000000000000000000000000000000000815260040161042b90610b00565b60405180910390fd5b600080549050811061047b576040517f08c379a000000000000000000000000000000000000000000000000000000000815260040161047290610ac0565b60405180910390fd5b60018060003373ffffffffffffffffffffffffffffffffffffffff1673ffffffffffffffffffffffffffffffffffffffff16815260200190815260200160002060006101000a81548160ff0219169083151502179055506000818154811061050c577f4e487b7100000000000000000000000000000000000000000000000000000000600052603260045260246000fd5b9060005260206000209060020201600101600081548092919061052e90610c70565b91905055503373ffffffffffffffffffffffffffffffffffffffff167fa36cc2bebb74db33e9f88110a07ef56e1b31b24b4c4f51b54b1664266e29f45b826040516105799190610b42565b60405180910390a250565b60025481565b61059261075b565b600061059c61075b565b60005b6000805490508110156107525782600082815481106105e7577f4e487b7100000000000000000000000000000000000000000000000000000000600052603260045260246000fd5b906000526020600020906002020160010154111561073f5760008181548110610639577f4e487b7100000000000000000000000000000000000000000000000000000000600052603260045260246000fd5b906000526020600020906002020160010154925060008181548110610687577f4e487b7100000000000000000000000000000000000000000000000000000000600052603260045260246000fd5b90600052602060002090600202016040518060400160405290816000820180546106b090610c3e565b80601f01602080910402602001604051908101604052809291908181526020018280546106dc90610c3e565b80156107295780601f106106fe57610100808354040283529160200191610729565b820191906000526020600020905b81548152906001019060200180831161070c57829003601f168201915b5050505050815260200160018201548152505091505b808061074a90610c70565b91505061059f565b50809250505090565b604051806040016040528060608152602001600081525090565b60008135905061078481610d28565b92915050565b60008135905061079981610d3f565b92915050565b6000602082840312156107b157600080fd5b60006107bf84828501610775565b91505092915050565b6000602082840312156107da57600080fd5b60006107e88482850161078a565b91505092915050565b60006107fd83836109bb565b905092915050565b600061081082610b6d565b61081a8185610b90565b93508360208202850161082c85610b5d565b8060005b85811015610868578484038952815161084985826107f1565b945061085483610b83565b925060208a01995050600181019050610830565b50829750879550505050505092915050565b61088381610bd5565b82525050565b600061089482610b78565b61089e8185610ba1565b93506108ae818560208601610c0b565b6108b781610d17565b840191505092915050565b60006108cd82610b78565b6108d78185610bb2565b93506108e7818560208601610c0b565b6108f081610d17565b840191505092915050565b6000610908601783610bb2565b91507f496e76616c69642063616e64696461746520696e6465780000000000000000006000830152602082019050919050565b6000610948601083610bb2565b91507f566f74696e6720697320636c6f736564000000000000000000000000000000006000830152602082019050919050565b6000610988601683610bb2565b91507f596f75206861766520616c726561647920766f746564000000000000000000006000830152602082019050919050565b600060408301600083015184820360008601526109d88282610889565b91505060208301516109ed6020860182610a35565b508091505092915050565b60006040830160008301518482036000860152610a158282610889565b9150506020830151610a2a6020860182610a35565b508091505092915050565b610a3e81610c01565b82525050565b610a4d81610c01565b82525050565b60006020820190508181036000830152610a6d8184610805565b905092915050565b6000602082019050610a8a600083018461087a565b92915050565b60006040820190508181036000830152610aaa81856108c2565b9050610ab96020830184610a44565b9392505050565b60006020820190508181036000830152610ad9816108fb565b9050919050565b60006020820190508181036000830152610af98161093b565b9050919050565b60006020820190508181036000830152610b198161097b565b9050919050565b60006020820190508181036000830152610b3a81846109f8565b905092915050565b6000602082019050610b576000830184610a44565b92915050565b6000819050602082019050919050565b600081519050919050565b600081519050919050565b6000602082019050919050565b600082825260208201905092915050565b600082825260208201905092915050565b600082825260208201905092915050565b6000610bce82610be1565b9050919050565b60008115159050919050565b600073ffffffffffffffffffffffffffffffffffffffff82169050919050565b6000819050919050565b60005b83811015610c29578082015181840152602081019050610c0e565b83811115610c38576000848401525b50505050565b60006002820490506001821680610c5657607f821691505b60208210811415610c6a57610c69610ce8565b5b50919050565b6000610c7b82610c01565b91507fffffffffffffffffffffffffffffffffffffffffffffffffffffffffffffffff821415610cae57610cad610cb9565b5b600182019050919050565b7f4e487b7100000000000000000000000000000000000000000000000000000000600052601160045260246000fd5b7f4e487b7100000000000000000000000000000000000000000000000000000000600052602260045260246000fd5b6000601f19601f8301169050919050565b610d3181610bc3565b8114610d3c57600080fd5b50565b610d4881610c01565b8114610d5357600080fd5b5056fea26469706673582212200835450c1ba72bd15518d5a6d14bf3b05e007d8f954bc370f7805bdcdbbb763d64736f6c63430008000033",
  "linkReferences": {},
  "deployedLinkReferences": {}
}