{
  "_format": "hh-sol-artifact-1",
  "contractName": "Ballot",
  "sourceName": "contracts/Ballot.sol",
  "abi": [
    {
      "inputs": [
        {
          "internalType": "string[]",
          "name": "candidateNames",
          "type": "string[]"
        }
      ],
      "stateMutability": "nonpayable",
      "type": "constructor"
    },
    {
      "anonymous": false,
      "inputs": [
        {
          "indexed": true,
          "internalType": "address",
          "name": "voter",
          "type": "address"
        },
        {
          "indexed": true,
          "internalType": "uint256",
          "name": "candidateIndex",
          "type": "uint256"
        }
      ],
      "name": "Voted",
      "type": "event"
    },
    {
      "inputs": [
        {
          "internalType": "uint256",
          "name": "",
          "type": "uint256"
        }
      ],
      "name": "candidates",
      "outputs": [
        {
          "internalType": "string",
          "name": "name",
          "type": "string"
        },
        {
          "internalType": "uint256",
          "name": "voteCount",
          "type": "uint256"
        }
      ],
      "stateMutability": "view",
      "type": "function"
    },
    {
      "inputs": [],
      "name": "chairperson",
      "outputs": [
        {
          "internalType": "address",
          "name": "",
          "type": "address"
        }
      ],
      "stateMutability": "view",
      "type": "function"
    },
    {
      "inputs": [
        {
          "internalType": "uint256",
          "name": "candidateIndex",
          "type": "uint256"
        }
      ],
      "name": "getVoteCount",
      "outputs": [
        {
          "internalType": "uint256",
          "name": "",
          "type": "uint256"
        }
      ],
      "stateMutability": "view",
      "type": "function"
    },
    {
      "inputs": [
        {
          "internalType": "uint256",
          "name": "candidateIndex",
          "type": "uint256"
        }
      ],
      "name": "vote",
      "outputs": [],
      "stateMutability": "nonpayable",
      "type": "function"
    },
    {
      "inputs": [
        {
          "internalType": "address",
          "name": "",
          "type": "address"
        }
      ],
      "name": "voters",
      "outputs": [
        {
          "internalType": "bool",
          "name": "voted",
          "type": "bool"
        },
        {
          "internalType": "uint256",
          "name": "voteIndex",
          "type": "uint256"
        }
      ],
      "stateMutability": "view",
      "type": "function"
    }
  ],
  "bytecode": "0x60806040523480156200001157600080fd5b5060405162000ce738038062000ce7833981810160405281019062000037919062000303565b336000806101000a81548173ffffffffffffffffffffffffffffffffffffffff021916908373ffffffffffffffffffffffffffffffffffffffff16021790555060005b8151811015620001475760026040518060400160405280848481518110620000cb577f4e487b7100000000000000000000000000000000000000000000000000000000600052603260045260246000fd5b60200260200101518152602001600081525090806001815401808255809150506001900390600052602060002090600202016000909190919091506000820151816000019080519060200190620001249291906200014f565b5060208201518160010155505080806200013e9062000454565b9150506200007a565b50506200052f565b8280546200015d906200041e565b90600052602060002090601f016020900481019282620001815760008555620001cd565b82601f106200019c57805160ff1916838001178555620001cd565b82800160010185558215620001cd579182015b82811115620001cc578251825591602001919060010190620001af565b5b509050620001dc9190620001e0565b5090565b5b80821115620001fb576000816000905550600101620001e1565b5090565b60006200021662000210846200037c565b62000348565b9050808382526020820190508260005b858110156200025a57815185016200023f8882620002d6565b84526020840193506020830192505060018101905062000226565b5050509392505050565b60006200027b6200027584620003ab565b62000348565b9050828152602081018484840111156200029457600080fd5b620002a1848285620003e8565b509392505050565b600082601f830112620002bb57600080fd5b8151620002cd848260208601620001ff565b91505092915050565b600082601f830112620002e857600080fd5b8151620002fa84826020860162000264565b91505092915050565b6000602082840312156200031657600080fd5b600082015167ffffffffffffffff8111156200033157600080fd5b6200033f84828501620002a9565b91505092915050565b6000604051905081810181811067ffffffffffffffff8211171562000372576200037162000500565b5b8060405250919050565b600067ffffffffffffffff8211156200039a576200039962000500565b5b602082029050602081019050919050565b600067ffffffffffffffff821115620003c957620003c862000500565b5b601f19601f8301169050602081019050919050565b6000819050919050565b60005b8381101562000408578082015181840152602081019050620003eb565b8381111562000418576000848401525b50505050565b600060028204905060018216806200043757607f821691505b602082108114156200044e576200044d620004d1565b5b50919050565b60006200046182620003de565b91507fffffffffffffffffffffffffffffffffffffffffffffffffffffffffffffffff821415620004975762000496620004a2565b5b600182019050919050565b7f4e487b7100000000000000000000000000000000000000000000000000000000600052601160045260246000fd5b7f4e487b7100000000000000000000000000000000000000000000000000000000600052602260045260246000fd5b7f4e487b7100000000000000000000000000000000000000000000000000000000600052604160045260246000fd5b6107a8806200053f6000396000f3fe608060405234801561001057600080fd5b50600436106100575760003560e01c80630121b93f1461005c5780632e4176cf146100785780633477ee2e14610096578063a3ec138d146100c7578063b2c2f2e8146100f8575b600080fd5b61007660048036038101906100719190610445565b610128565b005b61008061028c565b60405161008d9190610514565b60405180910390f35b6100b060048036038101906100ab9190610445565b6102b0565b6040516100be929190610558565b60405180910390f35b6100e160048036038101906100dc919061041c565b61036c565b6040516100ef92919061052f565b60405180910390f35b610112600480360381019061010d9190610445565b61039d565b60405161011f91906105a8565b60405180910390f35b6000600160003373ffffffffffffffffffffffffffffffffffffffff1673ffffffffffffffffffffffffffffffffffffffff16815260200190815260200160002090508060000160009054906101000a900460ff16156101bd576040517f08c379a00000000000000000000000000000000000000000000000000000000081526004016101b490610588565b60405180910390fd5b60018160000160006101000a81548160ff0219169083151502179055508181600101819055506002828154811061021d577f4e487b7100000000000000000000000000000000000000000000000000000000600052603260045260246000fd5b9060005260206000209060020201600101600081548092919061023f9061068c565b9190505550813373ffffffffffffffffffffffffffffffffffffffff167f4d99b957a2bc29a30ebd96a7be8e68fe50a3c701db28a91436490b7d53870ca460405160405180910390a35050565b60008054906101000a900473ffffffffffffffffffffffffffffffffffffffff1681565b600281815481106102c057600080fd5b90600052602060002090600202016000915090508060000180546102e39061065a565b80601f016020809104026020016040519081016040528092919081815260200182805461030f9061065a565b801561035c5780601f106103315761010080835404028352916020019161035c565b820191906000526020600020905b81548152906001019060200180831161033f57829003601f168201915b5050505050908060010154905082565b60016020528060005260406000206000915090508060000160009054906101000a900460ff16908060010154905082565b6000600282815481106103d9577f4e487b7100000000000000000000000000000000000000000000000000000000600052603260045260246000fd5b9060005260206000209060020201600101549050919050565b60008135905061040181610744565b92915050565b6000813590506104168161075b565b92915050565b60006020828403121561042e57600080fd5b600061043c848285016103f2565b91505092915050565b60006020828403121561045757600080fd5b600061046584828501610407565b91505092915050565b610477816105df565b82525050565b610486816105f1565b82525050565b6000610497826105c3565b6104a181856105ce565b93506104b1818560208601610627565b6104ba81610733565b840191505092915050565b60006104d2600e836105ce565b91507f416c726561647920766f7465642e0000000000000000000000000000000000006000830152602082019050919050565b61050e8161061d565b82525050565b6000602082019050610529600083018461046e565b92915050565b6000604082019050610544600083018561047d565b6105516020830184610505565b9392505050565b60006040820190508181036000830152610572818561048c565b90506105816020830184610505565b9392505050565b600060208201905081810360008301526105a1816104c5565b9050919050565b60006020820190506105bd6000830184610505565b92915050565b600081519050919050565b600082825260208201905092915050565b60006105ea826105fd565b9050919050565b60008115159050919050565b600073ffffffffffffffffffffffffffffffffffffffff82169050919050565b6000819050919050565b60005b8381101561064557808201518184015260208101905061062a565b83811115610654576000848401525b50505050565b6000600282049050600182168061067257607f821691505b6020821081141561068657610685610704565b5b50919050565b60006106978261061d565b91507fffffffffffffffffffffffffffffffffffffffffffffffffffffffffffffffff8214156106ca576106c96106d5565b5b600182019050919050565b7f4e487b7100000000000000000000000000000000000000000000000000000000600052601160045260246000fd5b7f4e487b7100000000000000000000000000000000000000000000000000000000600052602260045260246000fd5b6000601f19601f8301169050919050565b61074d816105df565b811461075857600080fd5b50565b6107648161061d565b811461076f57600080fd5b5056fea26469706673582212202ef274cbfb9193fc4394f6891722a96213ddae909cbba0e2bcb64e26227e1ae564736f6c63430008000033",
  "linkReferences": {},
  "deployedLinkReferences": {}
}