{
  "_format": "hh-sol-artifact-1",
  "contractName": "Ballot",
  "sourceName": "contracts/Ballot.sol",
  "abi": [
    {
      "inputs": [
        {
          "internalType": "uint256",
          "name": "_startTime",
          "type": "uint256"
        },
        {
          "internalType": "uint256",
          "name": "_endTime",
          "type": "uint256"
        },
        {
          "internalType": "string[]",
          "name": "candidateNames",
          "type": "string[]"
        }
      ],
      "stateMutability": "nonpayable",
      "type": "constructor"
    },
    {
      "anonymous": false,
      "inputs": [
        {
          "indexed": true,
          "internalType": "address",
          "name": "voter",
          "type": "address"
        },
        {
          "indexed": false,
          "internalType": "uint256",
          "name": "candidateIndex",
          "type": "uint256"
        }
      ],
      "name": "VoteCast",
      "type": "event"
    },
    {
      "inputs": [
        {
          "internalType": "uint256",
          "name": "",
          "type": "uint256"
        }
      ],
      "name": "candidates",
      "outputs": [
        {
          "internalType": "string",
          "name": "name",
          "type": "string"
        },
        {
          "internalType": "uint256",
          "name": "voteCount",
          "type": "uint256"
        }
      ],
      "stateMutability": "view",
      "type": "function"
    },
    {
      "inputs": [
        {
          "internalType": "uint256",
          "name": "candidateIndex",
          "type": "uint256"
        }
      ],
      "name": "castVote",
      "outputs": [],
      "stateMutability": "nonpayable",
      "type": "function"
    },
    {
      "inputs": [],
      "name": "endTime",
      "outputs": [
        {
          "internalType": "uint256",
          "name": "",
          "type": "uint256"
        }
      ],
      "stateMutability": "view",
      "type": "function"
    },
    {
      "inputs": [],
      "name": "getCandidates",
      "outputs": [
        {
          "components": [
            {
              "internalType": "string",
              "name": "name",
              "type": "string"
            },
            {
              "internalType": "uint256",
              "name": "voteCount",
              "type": "uint256"
            }
          ],
          "internalType": "struct Ballot.Candidate[]",
          "name": "",
          "type": "tuple[]"
        }
      ],
      "stateMutability": "view",
      "type": "function"
    },
    {
      "inputs": [],
      "name": "getWinner",
      "outputs": [
        {
          "components": [
            {
              "internalType": "string",
              "name": "name",
              "type": "string"
            },
            {
              "internalType": "uint256",
              "name": "voteCount",
              "type": "uint256"
            }
          ],
          "internalType": "struct Ballot.Candidate",
          "name": "",
          "type": "tuple"
        }
      ],
      "stateMutability": "view",
      "type": "function"
    },
    {
      "inputs": [
        {
          "internalType": "address",
          "name": "",
          "type": "address"
        }
      ],
      "name": "hasVoted",
      "outputs": [
        {
          "internalType": "bool",
          "name": "",
          "type": "bool"
        }
      ],
      "stateMutability": "view",
      "type": "function"
    },
    {
      "inputs": [],
      "name": "startTime",
      "outputs": [
        {
          "internalType": "uint256",
          "name": "",
          "type": "uint256"
        }
      ],
      "stateMutability": "view",
      "type": "function"
    }
  ],
  "bytecode": "0x60806040523480156200001157600080fd5b506040516200151438038062001514833981810160405281019062000037919062000509565b8183106200007c576040517f08c379a00000000000000000000000000000000000000000000000000000000081526004016200007390620005e5565b60405180910390fd5b428311620000c1576040517f08c379a0000000000000000000000000000000000000000000000000000000008152600401620000b8906200067d565b60405180910390fd5b826002819055508160038190555060005b81518110156200017b5760006040518060400160405280848481518110620000ff57620000fe6200069f565b5b602002602001015181526020016000815250908060018154018082558091505060019003906000526020600020906002020160009091909190915060008201518160000190805190602001906200015892919062000185565b5060208201518160010155505080806200017290620006fd565b915050620000d2565b50505050620007b0565b82805462000193906200077a565b90600052602060002090601f016020900481019282620001b7576000855562000203565b82601f10620001d257805160ff191683800117855562000203565b8280016001018555821562000203579182015b8281111562000202578251825591602001919060010190620001e5565b5b50905062000212919062000216565b5090565b5b808211156200023157600081600090555060010162000217565b5090565b6000604051905090565b600080fd5b600080fd5b6000819050919050565b6200025e8162000249565b81146200026a57600080fd5b50565b6000815190506200027e8162000253565b92915050565b600080fd5b6000601f19601f8301169050919050565b7f4e487b7100000000000000000000000000000000000000000000000000000000600052604160045260246000fd5b620002d48262000289565b810181811067ffffffffffffffff82111715620002f657620002f56200029a565b5b80604052505050565b60006200030b62000235565b9050620003198282620002c9565b919050565b600067ffffffffffffffff8211156200033c576200033b6200029a565b5b602082029050602081019050919050565b600080fd5b600080fd5b600067ffffffffffffffff8211156200037557620003746200029a565b5b620003808262000289565b9050602081019050919050565b60005b83811015620003ad57808201518184015260208101905062000390565b83811115620003bd576000848401525b50505050565b6000620003da620003d48462000357565b620002ff565b905082815260208101848484011115620003f957620003f862000352565b5b620004068482856200038d565b509392505050565b600082601f83011262000426576200042562000284565b5b815162000438848260208601620003c3565b91505092915050565b60006200045862000452846200031e565b620002ff565b905080838252602082019050602084028301858111156200047e576200047d6200034d565b5b835b81811015620004cc57805167ffffffffffffffff811115620004a757620004a662000284565b5b808601620004b689826200040e565b8552602085019450505060208101905062000480565b5050509392505050565b600082601f830112620004ee57620004ed62000284565b5b81516200050084826020860162000441565b91505092915050565b6000806000606084860312156200052557620005246200023f565b5b600062000535868287016200026d565b935050602062000548868287016200026d565b925050604084015167ffffffffffffffff8111156200056c576200056b62000244565b5b6200057a86828701620004d6565b9150509250925092565b600082825260208201905092915050565b7f496e76616c696420766f74696e6720706572696f640000000000000000000000600082015250565b6000620005cd60158362000584565b9150620005da8262000595565b602082019050919050565b600060208201905081810360008301526200060081620005be565b9050919050565b7f566f74696e672073746172742074696d65206d75737420626520696e2074686560008201527f2066757475726500000000000000000000000000000000000000000000000000602082015250565b60006200066560278362000584565b9150620006728262000607565b604082019050919050565b60006020820190508181036000830152620006988162000656565b9050919050565b7f4e487b7100000000000000000000000000000000000000000000000000000000600052603260045260246000fd5b7f4e487b7100000000000000000000000000000000000000000000000000000000600052601160045260246000fd5b60006200070a8262000249565b91507fffffffffffffffffffffffffffffffffffffffffffffffffffffffffffffffff82141562000740576200073f620006ce565b5b600182019050919050565b7f4e487b7100000000000000000000000000000000000000000000000000000000600052602260045260246000fd5b600060028204905060018216806200079357607f821691505b60208210811415620007aa57620007a96200074b565b5b50919050565b610d5480620007c06000396000f3fe608060405234801561001057600080fd5b506004361061007d5760003560e01c80633477ee2e1161005b5780633477ee2e146100ee5780633eb76b9c1461011f57806378e979251461013b5780638e7ea5b2146101595761007d565b806306a49fce1461008257806309eef43e146100a05780633197cbb6146100d0575b600080fd5b61008a610177565b604051610097919061088e565b60405180910390f35b6100ba60048036038101906100b59190610913565b610272565b6040516100c7919061095b565b60405180910390f35b6100d8610292565b6040516100e59190610985565b60405180910390f35b610108600480360381019061010391906109cc565b610298565b604051610116929190610a43565b60405180910390f35b610139600480360381019061013491906109cc565b610354565b005b61014361055e565b6040516101509190610985565b60405180910390f35b610161610564565b60405161016e9190610ab0565b60405180910390f35b60606000805480602002602001604051908101604052809291908181526020016000905b8282101561026957838290600052602060002090600202016040518060400160405290816000820180546101ce90610b01565b80601f01602080910402602001604051908101604052809291908181526020018280546101fa90610b01565b80156102475780601f1061021c57610100808354040283529160200191610247565b820191906000526020600020905b81548152906001019060200180831161022a57829003601f168201915b505050505081526020016001820154815250508152602001906001019061019b565b50505050905090565b60016020528060005260406000206000915054906101000a900460ff1681565b60035481565b600081815481106102a857600080fd5b90600052602060002090600202016000915090508060000180546102cb90610b01565b80601f01602080910402602001604051908101604052809291908181526020018280546102f790610b01565b80156103445780601f1061031957610100808354040283529160200191610344565b820191906000526020600020905b81548152906001019060200180831161032757829003601f168201915b5050505050908060010154905082565b600254421015801561036857506003544211155b6103a7576040517f08c379a000000000000000000000000000000000000000000000000000000000815260040161039e90610b7f565b60405180910390fd5b600160003373ffffffffffffffffffffffffffffffffffffffff1673ffffffffffffffffffffffffffffffffffffffff16815260200190815260200160002060009054906101000a900460ff1615610434576040517f08c379a000000000000000000000000000000000000000000000000000000000815260040161042b90610beb565b60405180910390fd5b600080549050811061047b576040517f08c379a000000000000000000000000000000000000000000000000000000000815260040161047290610c57565b60405180910390fd5b60018060003373ffffffffffffffffffffffffffffffffffffffff1673ffffffffffffffffffffffffffffffffffffffff16815260200190815260200160002060006101000a81548160ff021916908315150217905550600081815481106104e6576104e5610c77565b5b9060005260206000209060020201600101600081548092919061050890610cd5565b91905055503373ffffffffffffffffffffffffffffffffffffffff167fa36cc2bebb74db33e9f88110a07ef56e1b31b24b4c4f51b54b1664266e29f45b826040516105539190610985565b60405180910390a250565b60025481565b61056c6106c3565b60006105766106c3565b60005b6000805490508110156106ba57826000828154811061059b5761059a610c77565b5b90600052602060002090600202016001015411156106a757600081815481106105c7576105c6610c77565b5b9060005260206000209060020201600101549250600081815481106105ef576105ee610c77565b5b906000526020600020906002020160405180604001604052908160008201805461061890610b01565b80601f016020809104026020016040519081016040528092919081815260200182805461064490610b01565b80156106915780601f1061066657610100808354040283529160200191610691565b820191906000526020600020905b81548152906001019060200180831161067457829003601f168201915b5050505050815260200160018201548152505091505b80806106b290610cd5565b915050610579565b50809250505090565b604051806040016040528060608152602001600081525090565b600081519050919050565b600082825260208201905092915050565b6000819050602082019050919050565b600081519050919050565b600082825260208201905092915050565b60005b83811015610743578082015181840152602081019050610728565b83811115610752576000848401525b50505050565b6000601f19601f8301169050919050565b600061077482610709565b61077e8185610714565b935061078e818560208601610725565b61079781610758565b840191505092915050565b6000819050919050565b6107b5816107a2565b82525050565b600060408301600083015184820360008601526107d88282610769565b91505060208301516107ed60208601826107ac565b508091505092915050565b600061080483836107bb565b905092915050565b6000602082019050919050565b6000610824826106dd565b61082e81856106e8565b935083602082028501610840856106f9565b8060005b8581101561087c578484038952815161085d85826107f8565b94506108688361080c565b925060208a01995050600181019050610844565b50829750879550505050505092915050565b600060208201905081810360008301526108a88184610819565b905092915050565b600080fd5b600073ffffffffffffffffffffffffffffffffffffffff82169050919050565b60006108e0826108b5565b9050919050565b6108f0816108d5565b81146108fb57600080fd5b50565b60008135905061090d816108e7565b92915050565b600060208284031215610929576109286108b0565b5b6000610937848285016108fe565b91505092915050565b60008115159050919050565b61095581610940565b82525050565b6000602082019050610970600083018461094c565b92915050565b61097f816107a2565b82525050565b600060208201905061099a6000830184610976565b92915050565b6109a9816107a2565b81146109b457600080fd5b50565b6000813590506109c6816109a0565b92915050565b6000602082840312156109e2576109e16108b0565b5b60006109f0848285016109b7565b91505092915050565b600082825260208201905092915050565b6000610a1582610709565b610a1f81856109f9565b9350610a2f818560208601610725565b610a3881610758565b840191505092915050565b60006040820190508181036000830152610a5d8185610a0a565b9050610a6c6020830184610976565b9392505050565b60006040830160008301518482036000860152610a908282610769565b9150506020830151610aa560208601826107ac565b508091505092915050565b60006020820190508181036000830152610aca8184610a73565b905092915050565b7f4e487b7100000000000000000000000000000000000000000000000000000000600052602260045260246000fd5b60006002820490506001821680610b1957607f821691505b60208210811415610b2d57610b2c610ad2565b5b50919050565b7f566f74696e6720697320636c6f73656400000000000000000000000000000000600082015250565b6000610b696010836109f9565b9150610b7482610b33565b602082019050919050565b60006020820190508181036000830152610b9881610b5c565b9050919050565b7f596f75206861766520616c726561647920766f74656400000000000000000000600082015250565b6000610bd56016836109f9565b9150610be082610b9f565b602082019050919050565b60006020820190508181036000830152610c0481610bc8565b9050919050565b7f496e76616c69642063616e64696461746520696e646578000000000000000000600082015250565b6000610c416017836109f9565b9150610c4c82610c0b565b602082019050919050565b60006020820190508181036000830152610c7081610c34565b9050919050565b7f4e487b7100000000000000000000000000000000000000000000000000000000600052603260045260246000fd5b7f4e487b7100000000000000000000000000000000000000000000000000000000600052601160045260246000fd5b6000610ce0826107a2565b91507fffffffffffffffffffffffffffffffffffffffffffffffffffffffffffffffff821415610d1357610d12610ca6565b5b60018201905091905056fea2646970667358221220386cba00fcfda88675824fb0897c9a8530eee50e3adf22b23fb65696ee1e3d2e64736f6c63430008090033",
  "linkReferences": {},
  "deployedLinkReferences": {}
}